:100000000C94C0000C94DD000C94DD000C94DD0019
:100010000C94DD000C94DD000C94DD000C94DD00EC
:100020000C94DD000C94DD000C944B120C94DD005C
:100030000C94DD000C94DD000C94DD000C94DD00CC
:100040000C94DD000C94DD000C94DD000C94DD00BC
:100050000C94DD000C94DD000C94DD000C94DD00AC
:100060000C94DD000C94DD000C94DD000C94DD009C
:100070000C94DD000C94DD000C94DD000C94DD008C
:100080000C94DD000C94DD000C94DD000C94DD007C
:100090000C94DD000C94DD000C94DD000C94DD006C
:1000A0000C94DD000C94DD000C94DD005E098509E4
:1000B000A50A8509A50ACD09F009A50A530A670A08
:1000C00026034C0055004600410020004B0065000F
:1000D000790062006F00610072006400200044003B
:1000E00065006D006F0000001803440065006100AA
:1000F0006E002000430061006D0065007200610029
:1001000000000403090409022900010100C03209AA
:100110000400000203010100092111010001223F36
:100120000007058103080005070502030800051202
:1001300001100100000008EB034220010001020051
:100140000105010906A101050719E029E7150025A8
:10015000017501950881029501750881010508194D
:100160000129059505750191029501750391011508
:10017000002565050719002965950675088100C0E9
:1001800011241FBECFEFDAE0DEBFCDBF11E0A0E04B
:10019000B1E0ECE0FBE202C005900D92A430B107A3
:1001A000D9F721E0A4E0B1E001C01D92AC31B20763
:1001B000E1F70E943B010C9484150C940000292F58
:1001C000332723303105E1F05CF42130310599F01B
:1001D0002230310579F589E290E026E031E02EC049
:1001E0002132310511F12232310521F58FE390E002
:1001F00021E431E023C082E190E02FE231E01EC033
:1002000099278130910541F08230910541F0892B89
:1002100089F4E2E0F1E005C0E8EEF0E002C0E0ECD5
:10022000F0E0849190E09F0109C089E090E028E12E
:1002300031E004C080E090E020E030E0FA0131835A
:100240002083089584B7877F84BF0FB6F894A8955C
:1002500080916000886180936000109260000FBE02
:1002600090E080E80FB6F89480936100909361006D
:100270000FBE0C94E5140E942201789420E030E037
:10028000E0E4FFE1C901BF010E941F15803A9F40D1
:100290001CF48BB180588BB92F5F3F4FF3CF08957B
:1002A00080911301843001F588E0E4E0F1E0DF01A2
:1002B0001D928A95E9F782E0809304018DE1809395
:1002C000060181E08093E9008091E80085FF0CC081
:1002D00040E050E068E070E0CF010E943E0B80916A
:1002E000E8008E778093E800089581E08093020112
:1002F0000895089542E061EC81E00E943713E2EE38
:10030000F0E08081846080830895809115018330BE
:1003100051F020F4823009F444C008958A3039F154
:100320008B3071F0089580911401813A09F053C027
:100330008091E800877F8093E8008091020142C0AD
:1003400080911401813209F046C08091E800877FD6
:100350008093E8000E94C91381E02091160130913A
:100360001701232B09F480E0809302010895809106
:100370001401813281F58091E800877F8093E80045
:100380000E94C9138091160190911701882736E0C9
:10039000969587953A95E1F7909301018093000136
:1003A000089580911401813AB1F48091E800877F2B
:1003B0008093E800809100019091010196958795C6
:1003C000969587958093F1008091E8008E778093D1
:1003D000E8000C94C913089580910C0190910D01CF
:1003E000009729F0019790930D0180930C010895D7
:1003F00081E00895089581E008952F923F924F92F1
:100400005F926F927F928F929F92AF92BF92CF92A4
:10041000DF92EF92FF920F931F93CF93DF93CDB7AD
:10042000DEB7CC58D1090FB6F894DEBF0FBECDBFF2
:100430004C019A0120573C4FE5963FAF2EAFE59710
:1004400089ED93E0DA01FC011D923197E9F7FE0195
:1004500031968CE1DF011D928A95E9F787E0D90199
:100460001D928A95E9F721503109EC963FAF2EAFE6
:10047000EC9781E0D9018C93E9961CAE1DAE1EAEBF
:100480001FAEE997412C512C320100E0212C312C78
:100490005F01295B3F4FEE963FAF2EAFEE972E5494
:1004A0003109CC57DF4F39832883C458D040205BB3
:1004B0003F4FC258DF4F39832883CE57D040CA57A9
:1004C000DF4FB983A883C658D0406115710509F480
:1004D000D0C2D401BC91EA96BFAFEA978B2F83704C
:1004E000823009F443C0833061F0813009F450C098
:1004F000EFEF8E1A9E0A61507109C12CD12C760142
:1005000051C0D40114969C9114971396CC901397D4
:10051000D12CE12CF12C7601DD24CC24F92A119682
:100520002C91D701C601822BC058DF4F8883998355
:10053000AA83BB83C058D040D4011296CC90D12C52
:10054000DC2CCC24E12CF12CC058DF4F8881998120
:10055000AA81BB81C058D040C82AD92AEA2AFB2ADE
:100560006550710995E0890E911C1CC0D40112964A
:10057000CC901297D12CDC2CCC2411968C91C82ACB
:10058000E12CF12C63507109B3E08B0E911C0AC071
:10059000F401C180D12CE12CF12C62507109F2E000
:1005A0008F0E911CEA961FADEA971C7F143609F452
:1005B0009BC088F5143209F481C0B0F4183009F4F6
:1005C000F9C048F4143009F043C2D5011296DC9208
:1005D000CE9211973DC2143109F46AC0183109F066
:1005E00037C22601370134C2143309F46FC050F406
:1005F000183209F02DC2E996CCAEDDAEEEAEFFAEFC
:10060000E99726C2143409F467C0143509F020C2F2
:10061000F501C1861DC2143909F46EC078F4103892
:10062000E1F030F4143709F013C2F501C08210C2B2
:10063000143809F465C0103981F00AC2103B69F022
:1006400030F4103A09F4C4C0143AB9F001C2143BB2
:1006500029F1103C09F413C1FBC120E0D701C60108
:1006600081709927AA27BB27C058DF4F88839983B9
:10067000AA83BB83C058D04026C1CE014D96A81690
:10068000B90609F4FCC1C5014C962AE2F501DC016A
:1006900001900D922A95E1F75C01DAC1CE01019635
:1006A000A816B90609F4EDC19CE1A91AB108D0C198
:1006B000F501C286D386E486F586CAC1D5011E96A9
:1006C000CD92DD92ED92FC925197C2C1F501C28AA2
:1006D000D38AE48AF58ABCC1D5015696CD92DD92C3
:1006E000ED92FC925997B4C1D5011596CD92DD9249
:1006F000ED92FC921897ACC1D5015A96CC92A8C144
:10070000AC2DF501C38EC258DF4FE881F981CE5779
:10071000D04080818823F1F1CA57DF4FE881F98109
:10072000C658D0401081FA01E057FC4F80E090E0BD
:100730008117B0F49C01B08101963796BA13F8CFB7
:10074000E7E0E29FC001E39F900D112480579C4F8A
:100750009A01280F391FE5963FAF2EAFE5971AC0D3
:100760001A3009F498C181E0810FEC96AEADBFADAF
:10077000EC978C9387E09A01819F200D311D112405
:10078000F901E057FC4FE596FFAFEEAFE597119208
:100790008A95E9F781E0C258DF4FA881B981CE5729
:1007A000D0408C93F501838DE596AEADBFADE59756
:1007B0008C934EC1083009F466C1FE01ED59FF4F1C
:1007C000E00FF11DE00FF11DD182C0820F5F40C12B
:1007D0002114310431F41A01B7EB2B1ABCEF3B0A98
:1007E00016C0FA01E05BFC4F85819681892B61F090
:1007F000CC57DF4F28813981C458D040E217F30726
:1008000009F443C13796F0CF368225821F01D1010A
:10081000CC92F5018181928112969C938E931197CF
:100820000023B1F0A5968EAD9FADA59714969C932D
:100830008E931397FE01ED59FF4F21E0201731F001
:1008400082819381819391932F5FF8CF015000C1F2
:10085000E9968CAD9DADAEADBFADE997841595051C
:10086000A605B70508F4F4C0D10114965C924E9227
:100870001397BFEF4B1A5B0A6B0A7B0AE9C021147E
:10088000310409F404C1F10125803680E1C0DA01A8
:10089000FAE2F89FA00DB11D11241196FE01F99600
:1008A0008AE201900D928A95E1F7C058DF4F888166
:1008B0009981AA81BB81C058D040892B8A2B8B2B70
:1008C00009F488C02F5FF501828D281708F0C0C099
:1008D000F501DE01AF5BBF4F8AE101900D928A9571
:1008E000E1F7DDAECCAE21963FAE2EAE2197D5011D
:1008F0005B968C918EAF0023B1F0A5968EAD9FAD27
:10090000A59726969FAF8EAF2697FE01ED59FF4F14
:1009100031E0301731F082819381819391933F5F71
:10092000F8CF015014C0E9968CAD9DADAEADBFAD12
:10093000E99784159505A605B70548F026965FAE9C
:100940004EAE26979FEF491A590A690A790A10385C
:1009500011F41BAE07C0103919F4A1E0ABAF02C00F
:10096000B2E0BBAF8BADE596EEADFFADE597E80F1E
:10097000F11DE80FF11D818192819AAF89AFD501F8
:100980003C9181819281830F911D928381838BADF4
:10099000E596EEADFFADE597E80FF11DE80FF11D0F
:1009A000EE96AEADBFADEE978D919C910180F28138
:1009B000E02DE817F90708F4FC01EE96AEADBFADE7
:1009C000EE97ED93FC93FA018081843109F05FCFBB
:1009D00083E062C0CE01C996C857DF4F2883C8584C
:1009E000D040C557DF4F4883CB58D040C457DF4F66
:1009F0005883CC58D040C757DF4F6883C958D04080
:100A0000C657DF4F7883CA58D0400E94FB01C857B1
:100A1000DF4F2881C858D040C557DF4F4881CB5899
:100A2000D040C457DF4F5881CC58D040C757DF4F14
:100A30006881C958D040C657DF4F7881CA58D04026
:100A4000882309F43FCFDA018C918F5F8C933ACFE2
:100A5000EA968FADEA978C7009F037CDE9961CAE17
:100A60001DAE1EAE1FAEE997412C512C320100E0A5
:100A70002CCDDA018C91882361F080E00DC081E0FB
:100A80000BC082E009C086E007C085E005C084E0B5
:100A900003C088E001C087E0C457DF4F0FB6F89469
:100AA000DEBF0FBECDBFDF91CF911F910F91FF90A1
:100AB000EF90DF90CF90BF90AF909F908F907F90FE
:100AC0006F905F904F903F902F9008958F929F92DC
:100AD000AF92BF92CF92DF92EF92FF92FB013097DD
:100AE00009F448C02085608171813581332329F064
:100AF000DC014C9134133EC0019630E0C2A0D3A07B
:100B0000E4A0F5A0C6A2D7A2E0A6F1A612A213A265
:100B100014A215A2C12CD12C7601C3942150310905
:100B200038F1DB0153E0B695A7955A95E1F7A80F88
:100B3000B91F4C9150E0DB01A770BB2702C055954F
:100B40004795AA95E2F740FF0CC082A093A0A4A00D
:100B5000B5A08C289D28AE28BF2882A293A2A4A26B
:100B6000B5A26F5F7F4FCC0CDD1CEE1CFF1CD6CFF7
:100B700081E001C080E0FF90EF90DF90CF90BF90C8
:100B8000AF909F908F9008954F925F926F927F9257
:100B90008F929F92AF92BF92CF92DF92EF92FF928D
:100BA000CF93DF93FB01309709F446C0208530E0F6
:100BB000408151816581662319F0DC016D93CD017F
:100BC000C2A0D3A0E4A0F5A0C6A2D7A2E0A6F1A639
:100BD000C12CD12C7601C394C1E0D0E02150310961
:100BE00058F1BA01677077274E0102C0880C991C32
:100BF0006A95E2F7092C000CAA08BB0842A053A092
:100C000064A075A084209520A620B72089288A2872
:100C10008B2859F0DA0173E0B695A7957A95E1F73C
:100C2000A80FB91F6C916C296C934F5F5F4FCC0C70
:100C3000DD1CEE1CFF1CD2CFDF91CF91FF90EF9017
:100C4000DF90CF90BF90AF909F908F907F906F90EC
:100C50005F904F900895FC01E057FC4F8A529C4FE3
:100C600050E0440F551FDF01A40FB51F11962D91C1
:100C70003C9112977081761311C081E090E0A90138
:100C800047705527452B11F480E090E043E03695FE
:100C900027954A95E1F7820F931F08953796E81735
:100CA000F90709F780E090E008956F927F928F92A4
:100CB0009F92AF92BF92CF92DF92EF92FF920F93EB
:100CC0001F93CF93DF9300D01F92CDB7DEB77C0187
:100CD000CDB6DEB68091E80083FF11C1F7018081B7
:100CE00090E020911801309119012817390709F077
:100CF00006C180911501833009F4A5C030F481301C
:100D000071F0823009F4DEC0FAC08A3009F4C1C043
:100D10008B3009F4A9C0893009F0F1C055C0809129
:100D20001401813A09F0EBC08DB69EB61A82198281
:100D300080911601109117018B83F7018085482F50
:100D400050E08DB79EB7841B950B0FB6F8949EBFED
:100D50000FBE8DBFEDB7FEB731965F0160E070E06A
:100D6000CF010E9463154FEF410F8E010F5F1F4FA0
:100D70009501BE016D5F7F4FC7010E94F801F70129
:100D800086819781009729F0408550E0B5010E9447
:100D90005A151092E9008091E800877F8093E8005F
:100DA0008B8181118093F10069817A81C5010E9454
:100DB0006C0E8091E8008B778093E8000FB6F89472
:100DC0009EBE0FBE8DBE9BC080911401813209F082
:100DD00096C0ADB6BEB600911A0110911B0170907D
:100DE0001601609017018DB79EB7801B910B0FB64F
:100DF000F8949EBF0FBE8DBFEDB7FEB731964F0181
:100E00008091E800877F8093E800B801CF010E94BD
:100E1000490F8091E8008E778093E80021E07110FF
:100E200001C020E030E0021B130B280D391D4FEFED
:100E3000460D672DC7010E94FA010FB6F894BEBE99
:100E40000FBEADBE5CC080911401813A09F057C05D
:100E50008091E800877F8093E8008091E80080FF20
:100E6000FCCFF701818542C080911401813209F0E5
:100E700046C08091E800877F8093E8000E94C913F4
:100E80009091160181E0911101C080E0F701818706
:100E900036C080911401813291F58091E800877FFE
:100EA0008093E8000E94C913809116019091170168
:100EB000882736E0969587953A95E1F7F70195876B
:100EC00084871DC080911401813AC9F48091E800A3
:100ED000877F8093E8008091E80080FFFCCFF701D6
:100EE0008485958596958795969587958093F1004D
:100EF0008091E8008E778093E8000E94C9130FB6B6
:100F0000F894DEBE0FBECDBE0F900F900F90DF9114
:100F1000CF911F910F91FF90EF90DF90CF90BF90F6
:100F2000AF909F908F907F906F900895FC013996BD
:100F300027E0DF011D922A95E9F721E0FC012187D6
:100F400024EF31E03587248723E0248361E0019694
:100F50000C946C134F925F926F927F928F929F923C
:100F6000AF92BF92CF92DF92EF92FF920F931F93B7
:100F7000CF93DF9300D01F92CDB7DEB77C01ADB623
:100F8000BEB680911301843009F096C08091E400D0
:100F90009091E500F701228533852817390721F460
:100FA0008091110180FF88C0F70181818F7080934B
:100FB000E9008091E80085FF7FC08DB69EB6408530
:100FC00050E08DB79EB7841B950B0FB6F8949EBF6B
:100FD0000FBE8DBFEDB7FEB731966F011B821A822F
:100FE000198260E070E0CF010E9463158E010F5FEF
:100FF0001F4F960140E0BE016D5F7F4FC7010E9409
:10100000F801482EF70184859585892B51F091E0F0
:1010100080E026853785232B09F090E0092F182FD3
:1010200002C000E010E0F70166807780611471046F
:1010300099F049815A81B301C6010E944D1555248A
:101040005394892B09F4512CF701408550E0B601E7
:10105000C3010E945A1501C0512C89819A81892BA4
:10106000F9F0411004C0511002C0012BC9F0F70182
:10107000848595859787868781818F708093E90025
:101080008B8181118093F10069817A8140E050E089
:10109000C6010E943E0B8091E8008E778093E800A5
:1010A0008091E4009091E500F701938782870FB665
:1010B000F8949EBE0FBE8DBE0FB6F894BEBE0FBE96
:1010C000ADBE0F900F900F90DF91CF911F910F91B8
:1010D000FF90EF90DF90CF90BF90AF909F908F9058
:1010E0007F906F905F904F900895CF93DF93DC01D6
:1010F000EB01E881F981408150E02D913C911197FD
:101100004217530708F49A01E20FF31FEB01F9832A
:10111000E8838D919C911197821B930B8D939C93E7
:10112000DF91CF910895EF92FF920F931F93CF938A
:10113000DF931F92CDB7DEB77C018B01F701808171
:101140009181892B61F0B801C70149830E9475081C
:10115000D801ED91FC91818149818413EFCF0F90EB
:10116000DF91CF911F910F91FF90EF900895EF9233
:10117000FF920F931F93CF93DF9300D0CDB7DEB7CD
:101180007C018B01D7018D919C91892B99F0B8013D
:10119000C7012A8349830E947508D801ED91FC910B
:1011A000818149812A81841729F08213EBCFF701CD
:1011B000118210820F900F90DF91CF911F910F91AC
:1011C000FF90EF900895FF920F931F93CF93DF93BB
:1011D000EC018B01F42E422F0E94930888819981A3
:1011E000892B51F04F2DB801CE01DF91CF911F9186
:1011F0000F91FF900C949308DF91CF911F910F9165
:10120000FF900895AF92BF92CF92DF92EF92FF923C
:101210000F931F93CF93DF938C01EB016A01F801C9
:10122000E080F180E114F104A1F0A880B980BE0152
:10123000C8010E94750888819981F601099582305C
:1012400071F3813039F4B982A882F801F182E08229
:1012500001C082E0DF91CF911F910F91FF90EF903D
:10126000DF90CF90BF90AF9008951F93CF93DF93FF
:10127000CDB7DEB7AB970FB6F894DEBF0FBECDBFCC
:10128000E4E1F1E088E08E0F9091F10091938E13EC
:10129000FBCF0E9485018091E80083FF56C18091B9
:1012A000140190911501492F50E04A30510508F082
:1012B0004CC1FA01EA5AFF4F0C943315803821F0E3
:1012C000823809F042C108C080910F01909110014D
:1012D000992389F082600FC0809118018F70873048
:1012E00008F033C18093E9008091EB0085FB8827EB
:1012F00080F91092E9009091E800977F9093E800C0
:101300008093F1001092F100DAC0282F2D7F09F0B0
:101310001CC1882319F0823061F017C18091160139
:10132000813009F012C1933009F080E08093100100
:101330002EC08091160181112AC0809118018F70F2
:101340002FEF280F263008F000C18093E90020918C
:10135000EB0020FF1CC0933021F48091EB008062F1
:1013600014C09091EB0090619093EB0021E030E08D
:10137000A90102C0440F551F8A95E2F74093EA0085
:101380001092EA008091EB0088608093EB0010924D
:10139000E9008091E800877F95C08111D6C0109147
:1013A00016011F778091E3008078812B8093E30002
:1013B0008091E800877F8093E8000E94C9138091A4
:1013C000E80080FFFCCF8091E30080688093E30019
:1013D000111102C082E001C083E080931301B5C007
:1013E0008058823008F0B1C08091160190911701A9
:1013F0008C3D53E0950769F583E08A838AE289830F
:101400004FB7F894DE01139620E03EE051E2E32F5F
:10141000F0E050935700E49120FF03C0E295EF7095
:101420003F5FEF708E2F90E0EA3010F0C79601C05A
:10143000C0968D939D932F5F243149F74FBF8091C4
:10144000E800877F8093E8006AE270E0CE010196B1
:1014500022C060911801709119019E01255D3F4FD6
:10146000AE014F5F5F4F0E94DF00BC01892B09F482
:101470006CC08091E800877F8093E8002BA589816C
:101480009A81211103C00E94CA0F07C0213019F4AC
:101490000E94A91002C00E946C0E8091E8008B7718
:1014A0008093E80052C0803809F04FC08091E80076
:1014B000877F8093E80080910E018093F1008091F6
:1014C000E8008E778093E8000E94C9133EC0811126
:1014D0003CC09E01255D3F4FAE014F5F5F4F60E016
:1014E00070E080E091E00E94DF00892B71F18BA514
:1014F00010911601E981FA81811105C07196E4917C
:10150000E11718F10AC0813029F4CF0141960E94F9
:101510006A1501C081898117C0F08091E800877F3A
:101520008093E80010930E010E94C91380910E0170
:10153000811106C08091E30087FD02C081E001C0F7
:1015400084E0809313010E947A018091E80083FF78
:101550000AC08091E800877F8093E8008091EB00CB
:1015600080628093EB00AB960FB6F894DEBF0FBE9F
:10157000CDBFDF91CF911F9108950895EF92FF9213
:101580000F931F93CF93DF93EC017B010E94E8132D
:1015900081112DC0E114F10429F0F70180819181BE
:1015A000C81BD90B00E010E0209701F18091E80002
:1015B00085FD16C08091E8008B778093E800E114E8
:1015C000F10449F0F70180819181080F191F1183FF
:1015D000008385E00CC00E94E813882329F307C02C
:1015E0008091F10021970F5F1F4FDECF80E0DF91E8
:1015F000CF911F910F91FF90EF900895EF92FF927E
:101600000F931F93CF93DF93EC017B010E94E813AC
:1016100081112DC0E114F10429F0F701808191813D
:10162000C81BD90B00E010E0209701F18091E80081
:1016300085FD16C08091E8008E778093E800E11464
:10164000F10449F0F70180819181080F191F11837E
:10165000008385E00CC00E94E813882329F307C0AB
:101660001092F10021970F5F1F4FDECF80E0DF91D6
:10167000CF911F910F91FF90EF900895CF92DF923D
:10168000EF92FF920F931F93CF93DF93EC018B01A7
:101690007A010E94E813811135C0E114F10439F098
:1016A000F70180819181081B190BC80FD91FC12C2C
:1016B000D12C0115110529F18091E80085FD18C094
:1016C0008091E8008E778093E8000E940415E11471
:1016D000F10449F0F70180819181C80ED91ED182B1
:1016E000C08285E00FC00E94E813882311F30AC06E
:1016F00089918093F10001501109FFEFCF1ADF0AA1
:10170000D8CF80E0DF91CF911F910F91FF90EF90A4
:10171000DF90CF900895CF92DF92EF92FF920F93D8
:101720001F93CF93DF93EC018B017A010E94E813A2
:1017300081113BC0980121503109C20FD31FE11420
:10174000F10439F0F70180819181081B190BC81B46
:10175000D90BC12CD12C0115110531F18091E80074
:1017600085FD18C08091E8008E778093E8000E9484
:101770000415E114F10449F0F70180819181C80E4C
:10178000D91ED182C08285E010C00E94E813882350
:1017900011F30BC088818093F1002197015011094A
:1017A000FFEFCF1ADF0AD7CF80E0DF91CF911F91F3
:1017B0000F91FF90EF90DF90CF900895CF92DF923E
:1017C000EF92FF920F931F93CF93DF93EC018B0166
:1017D0007A010E94E813811135C0E114F10439F057
:1017E000F70180819181081B190BC80FD91FC12CEB
:1017F000D12C0115110529F18091E80085FD18C053
:101800008091E8008B778093E8000E940415E11432
:10181000F10449F0F70180819181C80ED91ED1826F
:10182000C08285E00FC00E94E813882311F30AC02C
:101830008091F100899301501109FFEFCF1ADF0A5F
:10184000D8CF80E0DF91CF911F910F91FF90EF9063
:10185000DF90CF900895CF92DF92EF92FF920F9397
:101860001F93CF93DF93EC018B017A010E94E81361
:1018700081113BC0980121503109C20FD31FE114DF
:10188000F10439F0F70180819181081B190BC81B05
:10189000D90BC12CD12C0115110531F18091E80033
:1018A00085FD18C08091E8008B778093E8000E9446
:1018B0000415E114F10449F0F70180819181C80E0B
:1018C000D91ED182C08285E010C00E94E81388230F
:1018D00011F30BC08091F100888321970150110909
:1018E000FFEFCF1ADF0AD7CF80E0DF91CF911F91B2
:1018F0000F91FF90EF90DF90CF900895CF92DF92FD
:10190000EF92FF920F931F93CF93DF93EC017B0134
:101910008A010E94E813811138C00115110539F0C0
:10192000F80180819181E81AF90AC80FD91FC12CEA
:10193000D12CE114F10441F18091E80085FD18C03B
:101940009091E8009E779093E8000E94041501159D
:10195000110549F0F801808191818C0D9D1D9183C5
:10196000808385E012C00E94E813882311F30DC024
:10197000FE0184918093F1002196F1E0EF1AF108C5
:101980008FEFC81AD80AD5CF80E0DF91CF911F9191
:101990000F91FF90EF90DF90CF900895CF92DF925C
:1019A000EF92FF920F931F93CF93DF93EC018B0184
:1019B0007A010E94E81381113CC09801215031093D
:1019C000C20FD31FE114F10439F0F7018081918136
:1019D000081B190BC81BD90BC12CD12C01151105E3
:1019E00039F18091E80085FD18C08091E8008E777C
:1019F0008093E8000E940415E114F10449F0F70116
:101A000080819181C80ED91ED182C08285E011C02B
:101A10000E94E813882311F30CC0FE018491809387
:101A2000F100219701501109FFEFCF1ADF0AD6CF3D
:101A300080E0DF91CF911F910F91FF90EF90DF90A9
:101A4000CF900895CF92DF92EF92FF920F931F9362
:101A5000CF93DF93EC018B017A010E94E81381118F
:101A600038C0E114F10439F0F70180819181081B3D
:101A7000190BC80FD91FC12CD12C0115110541F12B
:101A80008091E80085FD18C08091E8008E778093F2
:101A9000E8000E940415E114F10449F0F701808187
:101AA0009181C80ED91ED182C08285E012C00E94E9
:101AB000E813882311F30DC0CE010E946A158093AC
:101AC000F100219601501109FFEFCF1ADF0AD5CF9F
:101AD00080E0DF91CF911F910F91FF90EF90DF9009
:101AE000CF900895CF92DF92EF92FF920F931F93C2
:101AF000CF93DF93EC018B017A010E94E8138111EF
:101B00003DC0980121503109C20FD31FE114F104E7
:101B100039F0F70180819181081B190BC81BD90B83
:101B2000C12CD12C0115110541F18091E80085FDF2
:101B300018C08091E8008E778093E8000E94041519
:101B4000E114F10449F0F70180819181C80ED91E9A
:101B5000D182C08285E012C00E94E813882311F36D
:101B60000DC0CE010E946A158093F10021970150AB
:101B70001109FFEFCF1ADF0AD5CF80E0DF91CF91B7
:101B80001F910F91FF90EF90DF90CF900895CF922B
:101B9000DF92EF92FF920F931F93CF93DF93EC01AD
:101BA0008B017A010E94E813811138C0E114F1041D
:101BB00039F0F70180819181081B190BC80FD91FDB
:101BC000C12CD12C0115110541F18091E80085FD52
:101BD00018C08091E8008B778093E8000E9404157C
:101BE000E114F10449F0F70180819181C80ED91EFA
:101BF000D182C08285E012C00E94E813882311F3CD
:101C00000DC06091F100CE010E9472152196015025
:101C10001109FFEFCF1ADF0AD5CF80E0DF91CF9116
:101C20001F910F91FF90EF90DF90CF900895CF928A
:101C3000DF92EF92FF920F931F93CF93DF93EC010C
:101C40008B017A010E94E81381113DC09801215057
:101C50003109C20FD31FE114F10439F0F70180817B
:101C60009181081B190BC81BD90BC12CD12C011554
:101C7000110541F18091E80085FD18C08091E800D0
:101C80008B778093E8000E940415E114F10449F079
:101C9000F70180819181C80ED91ED182C08285E072
:101CA00012C00E94E813882311F30DC06091F10067
:101CB000CE010E947215219701501109FFEFCF1A32
:101CC000DF0AD5CF80E0DF91CF911F910F91FF9078
:101CD000EF90DF90CF900895CF93DF9320911A017A
:101CE00030911B012617370748F06115710539F44B
:101CF0002091E8002E772093E80001C0B90140E070
:101D000061157105F1F120911301222309F44CC0F2
:101D1000253009F44BC02091E80023FD49C02091F3
:101D2000E80022FD3BC02091E80020FFE9CF409170
:101D3000F3002091F20030E0342BFC01281B390B1A
:101D4000D901AE0FBF1FCF0140910301611571058D
:101D500059F0C42FD0E0AC17BD0730F481918093C7
:101D6000F10061507109ECCF242F30E041E0A2175F
:101D7000B30709F040E02091E8002E772093E800B7
:101D8000BFCF4111C0CF0AC080911301882361F0F9
:101D9000853061F08091E80083FD0AC08091E80001
:101DA00082FFF2CF80E005C082E003C083E001C083
:101DB00081E0DF91CF9108959B0121503109820F7D
:101DC000931F20911A0130911B012617370748F005
:101DD0006115710539F42091E8002E772093E80011
:101DE00001C0B901E0E061157105D1F12091130145
:101DF000222309F448C0253009F447C02091E800A7
:101E000023FD45C02091E80022FD37C02091E80065
:101E100020FFE9CF4091F3002091F20030E0342B15
:101E2000409103016115710579F0E42FF0E02E1760
:101E30003F0750F4FC0140814093F100019761504D
:101E400071092F5F3F4FECCF50E0E1E024173507D9
:101E500009F0E0E02091E8002E772093E800C3CF5E
:101E6000E111C4CF0AC080911301882361F085304D
:101E700061F08091E80083FD0AC08091E80082FF54
:101E8000F2CF80E0089582E0089583E0089581E034
:101E900008956115710529F42091E8002B772093AE
:101EA000E800FC016115710541F18091130188235F
:101EB00061F1853061F18091E80083FD24C080915B
:101EC000E80082FFEFCF2091F3008091F20090E0D4
:101ED000922B892B31F08091F1008193615071092F
:101EE00091F78091E8008B778093E800DBCF8091B9
:101EF0001301882351F0853051F08091E80080FF74
:101F0000F6CF80E0089581E0089582E0089583E0AF
:101F100008959B0121503109820F931F61157105AE
:101F200029F42091E8002B772093E80061157105D2
:101F300029F120911301222349F1253049F1209103
:101F4000E80023FD21C02091E80022FFEFCF40915F
:101F5000F3002091F20030E0342B232B11F3209179
:101F6000F100FC01208301976150710981F7D9CFFD
:101F700080911301882351F0853051F08091E80061
:101F800080FFF6CF80E0089581E0089582E0089513
:101F900083E0089520911A0130911B01261737071D
:101FA00048F06115710539F42091E8002E772093EF
:101FB000E80001C0B901382F492F20E061157105F3
:101FC00009F442C080911301882309F450C0853080
:101FD00009F44FC08091E80083FD4DC08091E80076
:101FE00082FD3FC08091E80080FFE8CF5091F30070
:101FF0002091F200822F90E0952BE32FF42F8E1B7F
:102000009F0BAF01480F591F209103016115710506
:1020100061F0A22FB0E04A175B0738F424912093B7
:10202000F100319661507109ECCF822F90E021E0F0
:102030004817590709F020E08091E8008E778093D7
:10204000E8003E2F4F2FBACF2111BCCF0AC080919C
:102050001301882361F0853061F08091E80083FDF1
:102060000AC08091E80082FFF2CF80E0089582E00C
:10207000089583E0089581E00895FB0131978E0F64
:102080009F1F20911A0130911B012617370748F036
:102090006115710539F42091E8002E772093E8004E
:1020A00001C0B901E0E061157105D1F12091130182
:1020B000222309F448C0253009F447C02091E800E4
:1020C00023FD45C02091E80022FD37C02091E800A3
:1020D00020FFE9CF4091F3002091F20030E0342B53
:1020E000409103016115710579F0E42FF0E02E179E
:1020F0003F0750F4FC0144914093F1000197615077
:1021000071092F5F3F4FECCF50E0E1E02417350716
:1021100009F0E0E02091E8002E772093E800C3CF9B
:10212000E111C4CF0AC080911301882361F085308A
:1021300061F08091E80083FD0AC08091E80082FF91
:10214000F2CF80E0089582E0089583E0089581E071
:102150000895EF92FF920F931F93CF93DF938B011C
:1021600020911A0130911B012617370740F0672B89
:1021700039F42091E8002E772093E80001C089010E
:1021800020E00115110509F440C0309113013323FB
:1021900009F44EC0353009F44DC03091E80033FDEC
:1021A0004BC03091E80032FD3DC03091E80030FF77
:1021B000E8CF2091F300E090F200F12CF22AEC013C
:1021C000E81AF90AAE014E0D5F1D80910301011559
:1021D000110571F0282F30E04217530748F4CE0163
:1021E0000E946A158093F100219601501109EACFEF
:1021F00090E021E04817590709F020E08091E800BD
:102200008E778093E800CE01BCCF2111BECF0AC0EB
:1022100080911301882361F0853061F08091E8009E
:1022200083FD0AC08091E80082FFF2CF80E005C004
:1022300082E003C083E001C081E0DF91CF911F9174
:102240000F91FF90EF900895CF92DF92EF92FF925F
:102250000F931F93CF93DF93EB017B0121E0E21AF1
:10226000F108E80EF91E80911A0190911B01861762
:10227000970740F0209739F48091E8008E7780939B
:10228000E80001C0EC0120E0209709F443C08091F0
:102290001301882309F451C0853009F450C080919E
:1022A000E80083FD4EC08091E80082FD40C080912F
:1022B000E80080FFE9CF8091F3000091F20010E088
:1022C000182B6E01C6018C1B9D0B8E0D9F1D20913E
:1022D0000301C114D10479F0422F50E0041715070F
:1022E00050F40E946A158093F10081E0C81AD10869
:1022F0000F5F1F4FE7CF7C01822F90E021E008178E
:10230000190709F020E08091E8008E778093E800BB
:10231000E601BACF2111BBCF0AC0809113018823F7
:1023200061F0853061F08091E80083FD0AC0809102
:10233000E80082FFF2CF80E005C082E003C083E0C6
:1023400001C081E0DF91CF911F910F91FF90EF903D
:10235000DF90CF9008950F931F93CF93DF93EB01FE
:10236000209729F42091E8002B772093E8008C0136
:10237000209759F180911301882379F1853079F103
:102380008091E80083FD27C08091E80082FFF0CFB4
:102390002091F3008091F20090E0922B892B49F07C
:1023A0006091F100C8010E9472150F5F1F4F2197C5
:1023B00079F78091E8008B778093E800D9CF8091FE
:1023C0001301882351F0853051F08091E80080FF9F
:1023D000F6CF80E005C081E003C082E001C083E069
:1023E000DF91CF911F910F9108950F931F93CF937A
:1023F000DF93EB018B0101501109080F191F209782
:1024000029F48091E8008B778093E800209731F1E0
:1024100080911301882351F1853051F18091E800BA
:1024200083FD22C08091E80082FFF0CF2091F3006D
:102430008091F20090E0922B892B19F36091F100CA
:10244000C8010E94721501501109219779F7D9CF5F
:1024500080911301882351F0853051F08091E8007C
:1024600080FFF6CF80E005C081E003C082E001C0BC
:1024700083E0DF91CF911F910F910895E8EDF0E097
:1024800080818E7F80831092E20008951092DA009E
:102490001092E10008951F920F920FB60F9211242F
:1024A0002F933F934F935F936F937F938F939F935C
:1024B000AF93BF93EF93FF938091E10082FF0BC036
:1024C0008091E20082FF07C08091E1008B7F8093C2
:1024D000E1000E94EC018091DA0080FF27C080912A
:1024E000D80080FF23C08091DA008E7F8093DA00CD
:1024F0008091D90080FF12C08091110182FF06C037
:1025000081E0809313010E94750110C080E189BDB4
:1025100082E189BD09B400FEFDCFF2CF80911101A7
:1025200082FF19BC109213010E9479018091E10091
:1025300080FF1CC08091E20080FF18C08091E20003
:102540008E7F8093E2008091E20080618093E200C0
:102550008091D80080628093D8008091110182FF21
:1025600019BC85E0809313010E94BD0A8091E100AF
:1025700084FF35C08091E20084FF31C08091110159
:1025800082FF1AC08091D8008F7D8093D8008091FF
:10259000E1008F7E8093E1008091E2008F7E809346
:1025A000E2008091E20081608093E20080910E0160
:1025B000882351F084E00FC080E189BD82E189BDAC
:1025C00009B400FEFDCFDECF8091E30087FD02C09D
:1025D00081E001C083E0809313010E94BD0A8091D5
:1025E000E10083FF33C08091E20083FF2FC0809120
:1025F000E100877F8093E10082E0809313011092D5
:102600000E018091E1008E7F8093E1008091E200D5
:102610008E7F8093E2008091E20080618093E200EF
:102620008091030190E028E030E040E0281739076E
:1026300020F44F5F220F331FF9CF4295407F426055
:1026400060E080E00E9437130E94BD0AFF91EF9185
:10265000BF91AF919F918F917F916F915F914F91BA
:102660003F912F910F900FBE0F901F901895982FAC
:10267000973058F59093E900981739F07091EC0075
:102680002091ED005091F00003C0242F762F50E0F0
:1026900021FF19C03091EB003E7F3093EB00309169
:1026A000ED003D7F3093ED003091EB0031603093D1
:1026B000EB007093EC002093ED005093F00020911C
:1026C000EE0027FF07C09F5FD3CF8F708093E90094
:1026D00081E0089580E00895EF92FF920F931F9399
:1026E000CF93DF93E62EEC018C010C5F1F4FF12C92
:1026F000FE1499F15881552359F1F801208169811F
:102700007A8131979081852F8F70873010F080E02B
:1027100025C0223010F442E001C046E0E8E0F0E0DD
:1027200020E0E617F70720F42F5FEE0FFF1FF9CF29
:102730002295207F422BF0E49F9F90011124551F8A
:102740005527551F652F622B0E9437138823F9F2F6
:10275000F39425960B5F1F4FCBCF81E0DF91CF9194
:102760001F910F91FF90EF9008951092F40080E078
:102770008093E9001092F0001092E8001092ED00B2
:102780009091EB009E7F9093EB008F5F873081F7F5
:1027900008958091140187FF11C08091E80082FDA7
:1027A00005C0809113018111F8CF11C08091E8001C
:1027B0008B770BC080911301882349F08091E8004A
:1027C00080FFF8CF8091E8008E778093E80008952D
:1027D0002091E4003091E50095E64091EC00842FD3
:1027E000817040FF22C08091E80080FD1CC0809174
:1027F0001301882391F0853091F08091EB0085FDE5
:1028000010C04091E4005091E5004217530729F3AE
:102810009A01915011F784E0089582E0089583E0D1
:10282000089581E0089580E008954091E80042FF16
:10283000DECF08958091110182FF0BC08091D800F6
:102840008F7D8093D8008091E00082608093E000CB
:1028500008C080E189BD82E189BD09B400FEFDCFD9
:10286000EDCF8091E00081FDFCCF08950E943E12E3
:102870000E9446128091E00081608093E000809188
:10288000D8008F778093D8008091110182FF19BC06
:102890008091110183FD05C08091D7008E7F8093C8
:1028A000D7008091D8008F7E8093D80010921201BB
:1028B0000895CF93DF9300D01F92CDB7DEB70E946B
:1028C0003E120E9446128091D8008F778093D800E4
:1028D0008091D80080688093D8008091D8008F7D47
:1028E0008093D8008091110182FF19BC10921301CE
:1028F00010920E011092100110920F019E012D5F97
:102900003F4FAE014F5F5F4F60E070E080E091E0CD
:102910000E94DF00892BA1F08B81E981FA8181116E
:1029200005C03796E491E09303010AC0813029F491
:10293000CF0107960E946A1501C087818093030129
:102940008091110180FF04C08091E000846003C089
:102950008091E0008B7F8093E0008091D8008160BF
:102960008093D8008091030190E028E030E040E0BF
:102970002817390720F44F5F220F331FF9CF4295F4
:10298000407F426060E080E00E9437138091E10068
:102990008E7F8093E1008091E20081608093E2006D
:1029A0008091E20088608093E2008091E0008E7F59
:1029B0008093E0008091D80080618093D8000F90D0
:1029C0000F900F90DF91CF91089580931101809126
:1029D000D8008F7E8093D8008091110181FD04C0C2
:1029E0008091D700816003C08091D7008E7F809353
:1029F000D7008091110182FD02C084E082BF81E096
:102A0000809312010C945914CF9380911301882361
:102A1000A1F0C091E900CF709091EC00892F8170F6
:102A200090FD80E8C82B1092E9008091E80083FDBA
:102A30000E943509CF70C093E900CF91089597FBAC
:102A4000072E16F4009407D077FD09D00E9439159F
:102A500007FC05D03EF4909581959F4F08957095A1
:102A600061957F4F0895EE0FFF1F0590F491E02DC3
:102A70000994AA1BBB1B51E107C0AA1FBB1FA617C5
:102A8000B70710F0A61BB70B881F991F5A95A9F717
:102A900080959095BC01CD010895FB01DC0104C037
:102AA0008D910190801921F441505040C8F7881B46
:102AB000990B0895FB01DC0102C001900D92415079
:102AC0005040D8F70895DC0101C06D93415050404B
:102AD000E0F70895F999FECF92BD81BDF89A992744
:102AE00080B50895262FF999FECF92BD81BDF89A41
:102AF000019700B4021639F01FBA20BD0FB6F89442
:0C2B0000FA9AF99A0FBE0895F894FFCFDE
:042B0C00F4010108C7
:00000001FF
